:100000000C942A000C9447000C9447000C94470071
:100010000C9447000C9447000C9447000C94470044
:100020000C9447000C9447000C9447000C94470034
:100030000C9447000C9447000C9447000C94470024
:100040000C9447000C9447000C9447000C94470014
:100050000C94470011241FBECFE5D8E0DEBFCDBF12
:1000600010E0A0E6B0E0E8EDF5E002C005900D92EA
:10007000A83FB107D9F721E0A8EFB0E001C01D9279
:10008000A030B207E1F70E94F5010C94EA020C944B
:10009000000011B887E480B984E086BF089594EA2F
:1000A00096BF06B607FEFDCF83B984E886BF06B6C5
:1000B00007FEFDCF089583B984E886BF06B607FE24
:1000C000FDCF089584E986BF08950F931F93CF93C2
:1000D000DF9300D000D0CDB7DEB7282F207F30E1EE
:1000E000839FC001112430917400332311F038E054
:1000F00001C030E0922F962B932B292F2460298367
:100100009A83862B832B982F94609B838C8300E0AB
:1001100010E010C08EE40E944F00E1E0F0E0EC0F30
:10012000FD1FE00FF11F80810E945B000E946200B2
:100130000F5F1F4F043011056CF30F900F900F905D
:100140000F90DF91CF911F910F91089560E00E9471
:100150006500089561E00E9465000895CF93DF93E4
:10016000EC0103C021960E94AA0088818111FACF78
:10017000DF91CF91089581E00E94A6008FE99FE072
:100180000197F1F700C000000895662311F090EC8C
:1001900001C090E8890F0E94A600089581E0809335
:1001A00074008EE40E944F0088E00E945B000E9471
:1001B000620008950E9449002FEF80E792E02150ED
:1001C00080409040E1F700C0000083E30E94A60059
:1001D00082E30E94A60088E20E94A6008CE00E94B2
:1001E000A60086E00E94A60081E00E94A6008FE3A0
:1001F0009FE10197F1F700C000000E94CE00089532
:10020000109274008EE40E944F0080E00E945B0018
:100210000E94620008958FE081BB8FEF82BB08953A
:1002200030E03BC0E32FF0E081E090E0032E02C01D
:10023000880F991F0A94E2F7809582BB20E02AC0BC
:1002400080B3622F70E0AB014C5F5F4F90E0042EF3
:1002500002C0959587950A94E2F780FD1AC080B395
:1002600090E0042E02C0959587950A94E2F780FFEE
:10027000F6CF8FE39CE90197F1F700C00000EE0F85
:10028000FF1FEE0FFF1FE05AFF4FE60FF71F8081A1
:1002900008952F5F2430A0F23F5F343018F280E0E1
:1002A000089528B38370E82FF0E0E059FF4F908164
:1002B000822F807F892B88BB8FE39FE10197F1F725
:1002C00000C0000008950F931F93CF93DF938C011C
:1002D000C0E0D0E013C08091F8000E9451018091ED
:1002E000F80090E0019683709078992324F40197A8
:1002F0008C6F9F6F01968093F8002196C017D107ED
:1003000050F3DF91CF911F910F9108950F931F9399
:10031000CF93DF938C01C0E0D0E018C08091F8004B
:1003200090E0019783709078992324F401978C6F63
:100330009F6F01968093F800843018F083E08093DB
:10034000F8008091F8000E9451012196C017D10752
:1003500028F3DF91CF911F910F91089588B3807F8B
:1003600088BB089587B38F6087BB0E94AE01089554
:1003700080E092E00E9463010E94AE01089580E057
:1003800092E00E9486010E94AE01089584B38160CC
:1003900084BB85B38E7F85BB089520E019C095B3DB
:1003A000916095BB3FEF46E791E03150404090406F
:1003B000E1F700C0000095B39E7F95BB3FEF46E795
:1003C00091E0315040409040E1F700C000002F5FC5
:1003D000281728F3089585E0EBEFF0E0DF011D9288
:1003E0008A95E9F71092FA0008950E940B010E9485
:1003F000DA000E94B2010E94C6010E94BB008AE797
:1004000090E00E94AE0061E080E00E94C5008BE8B1
:1004100090E00E94AE002FEF81EE94E021508040EA
:100420009040E1F700C000000E94BB0084E990E02A
:100430000E94AE0061E080E00E94C5000E941001B1
:10044000C82F8823D9F38A3279F40E94EB0161E046
:1004500080E00E94C50084EA90E00E94AE0061E066
:1004600080E00E94C500EACF833249F4E091FA00AF
:10047000EE2321F3F0E0E550FF4F108229C08FEB0F
:100480008C0F843060F4C134C9F6809174008823E5
:1004900019F00E940001D2CF0E94CE00CFCF8091F0
:1004A000FA00843080F48AE20E94AA00E091FA0007
:1004B00081E08E0F8093FA00F0E0E550FF4FC0839B
:1004C00081E00E94CD018091FA00843009F0B6CF1E
:1004D000E091FA00F0E0E550FF4F10822FEF80E747
:1004E00092E0215080409040E1F700C000000E945F
:1004F000BB0065E770E08BEF90E00E94E102892B82
:10050000F9F485EB90E00E94AE0061E080E00E948B
:10051000C50084EC90E00E94AE0082E00E94CD0114
:100520000E94B8012FEF87EA91E621508040904069
:10053000E1F700C000000E94BF011092F90034C032
:100540008091F9008F5F8093F90082ED90E00E9426
:10055000AE0061E080E00E94C5008091F900833028
:1005600098F080EE90E00E94AE0085E00E94CD0100
:100570002FEF87EA91E6215080409040E1F700C0DC
:1005800000001092F90010C08EEE90E00E94AE00C4
:1005900083E00E94CD012FEF89E698E12150804051
:1005A0009040E1F700C000000E94EB010E94BB00F8
:1005B00084E990E00E94AE0061E080E00E94C50006
:1005C0003DCFFB01DC018D91019080190110D9F321
:0805D000990B0895F894FFCF88
:1005D8003132334134353642373839432A302344AF
:1005E80001020408013132333400446F6F72204C29
:1005F8006F636B2053797374656D0052656164791C
:100608002E2E2E00456E7465722050617373776FBD
:1006180072643A0020202020202020202020202042
:100628002020202000416363657373204772616E48
:1006380074656400446F6F7220556E6C6F636B65F0
:1006480064004163636573732044656E6965640083
:1006580053797374656D204C6F636B6564005472D5
:080668007920416761696E0011
:00000001FF
