:100000000C942A000C9447000C9447000C94470071
:100010000C9447000C9447000C9447000C94470044
:100020000C9447000C9447000C9447000C94470034
:100030000C9447000C9447000C9447000C94470024
:100040000C9447000C9447000C9447000C94470014
:100050000C94470011241FBECFE5D8E0DEBFCDBF12
:1000600010E0A0E6B0E0E0E2F5E002C005900D92FD
:10007000A43FB107D9F720E0A4EFB0E001C01D9282
:10008000AB3FB207E1F70E9499010C948E020C94E9
:10009000000011B887E480B984E086BF089594EA2F
:1000A00096BF06B607FEFDCF83B984E886BF06B6C5
:1000B00007FEFDCF089583B984E886BF06B607FE24
:1000C000FDCF089584E986BF08950F931F93CF93C2
:1000D000DF9300D000D0CDB7DEB7282F207F30E1EE
:1000E000839FC001112430917000332311F038E058
:1000F00001C030E0922F962B932B292F2460298367
:100100009A83862B832B982F94609B838C8300E0AB
:1001100010E010C08EE40E944F00E1E0F0E0EC0F30
:10012000FD1FE00FF11F80810E945B000E946200B2
:100130000F5F1F4F043011056CF30F900F900F905D
:100140000F90DF91CF911F910F91089560E00E9471
:100150006500089561E00E9465000895CF93DF93E4
:10016000EC0103C021960E94AA0088818111FACF78
:10017000DF91CF91089581E00E94A6008FE99FE072
:100180000197F1F700C000000895662311F090EC8C
:1001900001C090E8890F0E94A600089581E0809335
:1001A00070008EE40E944F0088E00E945B000E9475
:1001B000620008950E9449002FEF80E792E02150ED
:1001C00080409040E1F700C0000083E30E94A60059
:1001D00082E30E94A60088E20E94A6008CE00E94B2
:1001E000A60086E00E94A60081E00E94A6008FE3A0
:1001F0009FE10197F1F700C000000E94CE00089532
:10020000109270008EE40E944F0080E00E945B001C
:100210000E94620008958FE081BB8FEF82BB08953A
:1002200030E044C0E32FF0E081E090E0032E02C014
:10023000880F991F0A94E2F7809582BB8FE99FE0AF
:100240000197F1F700C0000020E02DC080B3622FBD
:1002500070E0AB014C5F5F4F90E0042E02C09595BB
:1002600087950A94E2F780FD1DC080B390E0042ECC
:1002700002C0959587950A94E2F780FFF6CF9FEF2D
:1002800029EF80E0915020408040E1F700C000005D
:10029000EE0FFF1FEE0FFF1FE05AFF4FE60FF71F95
:1002A000808108952F5F243088F23F5F343008F456
:1002B000B9CF80E0089587B3816087BB88B38E7F14
:1002C00088BB089588B3816088BB089588B38E7F0A
:1002D00088BB089584B3816084BB85B38E7F85BB62
:1002E000089520E019C095B3916095BB3FEF46E7B4
:1002F00091E0315040409040E1F700C0000095B3DC
:100300009E7F95BB3FEF46E791E0315040409040E3
:10031000E1F700C000002F5F281728F3089585E05B
:10032000E6EFF0E0DF011D928A95E9F71092F50003
:1003300008950E940B010E94DA000E945B010E9456
:100340006A010E94BB0086E790E00E94AE0061E077
:1003500080E00E94C50087E890E00E94AE002FEF89
:1003600081EE94E0215080409040E1F700C0000011
:100370000E94BB0080E990E00E94AE0061E080E056
:100380000E94C5000E941001C82F8823D9F38A3229
:1003900079F40E948F0161E080E00E94C50080EA4C
:1003A00090E00E94AE0061E080E00E94C500EACFCC
:1003B000833249F4E091F500EE2321F3F0E0EA50B6
:1003C000FF4F108229C08FEB8C0F843060F4C13452
:1003D000C9F680917000882319F00E940001D2CFE5
:1003E0000E94CE00CFCF8091F500843080F48AE265
:1003F0000E94AA00E091F50081E08E0F8093F50045
:10040000F0E0EA50FF4FC08381E00E9471018091CB
:10041000F500843009F0B6CFE091F500F0E0EA5045
:10042000FF4F10822FEF80E792E0215080409040F4
:10043000E1F700C000000E94BB0061E770E086EFBA
:1004400090E00E948502892BF9F481EB90E00E94F4
:10045000AE0061E080E00E94C50080EC90E00E9468
:10046000AE0082E00E9471010E9462012FEF87EAD4
:1004700091E6215080409040E1F700C000000E94CA
:1004800066011092F40034C08091F4008F5F809375
:10049000F4008EEC90E00E94AE0061E080E00E94EB
:1004A000C5008091F400833098F08CED90E00E94BC
:1004B000AE0085E00E9471012FEF87EA91E621509E
:1004C00080409040E1F700C000001092F40010C09E
:1004D0008AEE90E00E94AE0083E00E9471012FEF4F
:1004E00089E698E1215080409040E1F700C000008B
:1004F0000E948F010E94BB0080E990E00E94AE0044
:1005000061E080E00E94C5003DCFFB01DC018D91E0
:10051000019080190110D9F3990B0895F894FFCF39
:100520003132334134353642373839432A30234467
:10053000013132333400446F6F72204C6F636B2093
:1005400053797374656D0052656164792E2E2E00A7
:10055000456E7465722050617373776F72643A00F0
:10056000202020202020202020202020202020208B
:1005700000416363657373204772616E7465640044
:10058000446F6F7220556E6C6F636B6564004163DE
:10059000636573732044656E696564005379737491
:1005A000656D204C6F636B65640054727920416700
:0405B00061696E000F
:00000001FF
